{
  "_format": "hh-sol-artifact-1",
  "contractName": "File",
  "sourceName": "contracts/File.sol",
  "abi": [
    {
      "anonymous": false,
      "inputs": [
        {
          "indexed": false,
          "internalType": "address",
          "name": "from",
          "type": "address"
        },
        {
          "indexed": false,
          "internalType": "address",
          "name": "receiver",
          "type": "address"
        },
        {
          "indexed": false,
          "internalType": "uint256",
          "name": "amount",
          "type": "uint256"
        },
        {
          "indexed": false,
          "internalType": "string",
          "name": "message",
          "type": "string"
        },
        {
          "indexed": false,
          "internalType": "uint256",
          "name": "timestamp",
          "type": "uint256"
        },
        {
          "indexed": false,
          "internalType": "string",
          "name": "keyword",
          "type": "string"
        },
        {
          "indexed": false,
          "internalType": "string",
          "name": "file",
          "type": "string"
        }
      ],
      "name": "Transfer",
      "type": "event"
    },
    {
      "inputs": [
        {
          "internalType": "address payable",
          "name": "receiver",
          "type": "address"
        },
        {
          "internalType": "uint256",
          "name": "amount",
          "type": "uint256"
        },
        {
          "internalType": "string",
          "name": "message",
          "type": "string"
        },
        {
          "internalType": "string",
          "name": "keyword",
          "type": "string"
        },
        {
          "internalType": "string",
          "name": "hashFile",
          "type": "string"
        }
      ],
      "name": "addToBlockchain",
      "outputs": [],
      "stateMutability": "nonpayable",
      "type": "function"
    },
    {
      "inputs": [],
      "name": "getTransactionCount",
      "outputs": [
        {
          "internalType": "uint256",
          "name": "",
          "type": "uint256"
        }
      ],
      "stateMutability": "view",
      "type": "function"
    },
    {
      "inputs": [],
      "name": "gettAllTransactions",
      "outputs": [
        {
          "components": [
            {
              "internalType": "address",
              "name": "sender",
              "type": "address"
            },
            {
              "internalType": "address",
              "name": "receiver",
              "type": "address"
            },
            {
              "internalType": "uint256",
              "name": "amount",
              "type": "uint256"
            },
            {
              "internalType": "string",
              "name": "message",
              "type": "string"
            },
            {
              "internalType": "uint256",
              "name": "timestamp",
              "type": "uint256"
            },
            {
              "internalType": "string",
              "name": "keyword",
              "type": "string"
            },
            {
              "internalType": "string",
              "name": "file",
              "type": "string"
            },
            {
              "internalType": "bool",
              "name": "isValid",
              "type": "bool"
            }
          ],
          "internalType": "struct File.TransferStruct[]",
          "name": "",
          "type": "tuple[]"
        }
      ],
      "stateMutability": "view",
      "type": "function"
    },
    {
      "inputs": [
        {
          "internalType": "uint256",
          "name": "index",
          "type": "uint256"
        },
        {
          "internalType": "bool",
          "name": "isValid",
          "type": "bool"
        }
      ],
      "name": "validate",
      "outputs": [],
      "stateMutability": "nonpayable",
      "type": "function"
    }
  ],
  "bytecode": "0x608060405234801561001057600080fd5b50610e8b806100206000396000f3fe608060405234801561001057600080fd5b506004361061004c5760003560e01c80632e7700f01461005157806396eda9941461006f57806397ef4e3e1461008d578063be9863a3146100a9575b600080fd5b6100596100c5565b6040516100669190610b36565b60405180910390f35b6100776100ce565b6040516100849190610b14565b60405180910390f35b6100a760048036038101906100a29190610841565b6103bf565b005b6100c360048036038101906100be9190610782565b610426565b005b60008054905090565b60606001805480602002602001604051908101604052809291908181526020016000905b828210156103b65783829060005260206000209060080201604051806101000160405290816000820160009054906101000a900473ffffffffffffffffffffffffffffffffffffffff1673ffffffffffffffffffffffffffffffffffffffff1673ffffffffffffffffffffffffffffffffffffffff1681526020016001820160009054906101000a900473ffffffffffffffffffffffffffffffffffffffff1673ffffffffffffffffffffffffffffffffffffffff1673ffffffffffffffffffffffffffffffffffffffff168152602001600282015481526020016003820180546101dc90610d40565b80601f016020809104026020016040519081016040528092919081815260200182805461020890610d40565b80156102555780601f1061022a57610100808354040283529160200191610255565b820191906000526020600020905b81548152906001019060200180831161023857829003601f168201915b505050505081526020016004820154815260200160058201805461027890610d40565b80601f01602080910402602001604051908101604052809291908181526020018280546102a490610d40565b80156102f15780601f106102c6576101008083540402835291602001916102f1565b820191906000526020600020905b8154815290600101906020018083116102d457829003601f168201915b5050505050815260200160068201805461030a90610d40565b80601f016020809104026020016040519081016040528092919081815260200182805461033690610d40565b80156103835780601f1061035857610100808354040283529160200191610383565b820191906000526020600020905b81548152906001019060200180831161036657829003601f168201915b505050505081526020016007820160009054906101000a900460ff161515151581525050815260200190600101906100f2565b50505050905090565b80600183815481106103fa577f4e487b7100000000000000000000000000000000000000000000000000000000600052603260045260246000fd5b906000526020600020906008020160070160006101000a81548160ff0219169083151502179055505050565b60016000808282546104389190610c18565b9250508190555060016040518061010001604052803373ffffffffffffffffffffffffffffffffffffffff1681526020018773ffffffffffffffffffffffffffffffffffffffff16815260200186815260200185815260200142815260200184815260200183815260200160001515815250908060018154018082558091505060019003906000526020600020906008020160009091909190915060008201518160000160006101000a81548173ffffffffffffffffffffffffffffffffffffffff021916908373ffffffffffffffffffffffffffffffffffffffff16021790555060208201518160010160006101000a81548173ffffffffffffffffffffffffffffffffffffffff021916908373ffffffffffffffffffffffffffffffffffffffff160217905550604082015181600201556060820151816003019080519060200190610587929190610638565b506080820151816004015560a08201518160050190805190602001906105ae929190610638565b5060c08201518160060190805190602001906105cb929190610638565b5060e08201518160070160006101000a81548160ff02191690831515021790555050507f21ec5b3f3e6c597e1a0d1650e5545618667a89bf7d7341cc53e38673d3dede32338686864287876040516106299796959493929190610a90565b60405180910390a15050505050565b82805461064490610d40565b90600052602060002090601f01602090048101928261066657600085556106ad565b82601f1061067f57805160ff19168380011785556106ad565b828001600101855582156106ad579182015b828111156106ac578251825591602001919060010190610691565b5b5090506106ba91906106be565b5090565b5b808211156106d75760008160009055506001016106bf565b5090565b60006106ee6106e984610b82565b610b51565b90508281526020810184848401111561070657600080fd5b610711848285610cfe565b509392505050565b60008135905061072881610e10565b92915050565b60008135905061073d81610e27565b92915050565b600082601f83011261075457600080fd5b81356107648482602086016106db565b91505092915050565b60008135905061077c81610e3e565b92915050565b600080600080600060a0868803121561079a57600080fd5b60006107a888828901610719565b95505060206107b98882890161076d565b945050604086013567ffffffffffffffff8111156107d657600080fd5b6107e288828901610743565b935050606086013567ffffffffffffffff8111156107ff57600080fd5b61080b88828901610743565b925050608086013567ffffffffffffffff81111561082857600080fd5b61083488828901610743565b9150509295509295909350565b6000806040838503121561085457600080fd5b60006108628582860161076d565b92505060206108738582860161072e565b9150509250929050565b600061088983836109b4565b905092915050565b61089a81610cc8565b82525050565b6108a981610c6e565b82525050565b6108b881610c6e565b82525050565b60006108c982610bc2565b6108d38185610be5565b9350836020820285016108e585610bb2565b8060005b858110156109215784840389528151610902858261087d565b945061090d83610bd8565b925060208a019950506001810190506108e9565b50829750879550505050505092915050565b61093c81610c92565b82525050565b600061094d82610bcd565b6109578185610bf6565b9350610967818560208601610d0d565b61097081610dff565b840191505092915050565b600061098682610bcd565b6109908185610c07565b93506109a0818560208601610d0d565b6109a981610dff565b840191505092915050565b6000610100830160008301516109cd60008601826108a0565b5060208301516109e060208601826108a0565b5060408301516109f36040860182610a72565b5060608301518482036060860152610a0b8282610942565b9150506080830151610a206080860182610a72565b5060a083015184820360a0860152610a388282610942565b91505060c083015184820360c0860152610a528282610942565b91505060e0830151610a6760e0860182610933565b508091505092915050565b610a7b81610cbe565b82525050565b610a8a81610cbe565b82525050565b600060e082019050610aa5600083018a6108af565b610ab26020830189610891565b610abf6040830188610a81565b8181036060830152610ad1818761097b565b9050610ae06080830186610a81565b81810360a0830152610af2818561097b565b905081810360c0830152610b06818461097b565b905098975050505050505050565b60006020820190508181036000830152610b2e81846108be565b905092915050565b6000602082019050610b4b6000830184610a81565b92915050565b6000604051905081810181811067ffffffffffffffff82111715610b7857610b77610dd0565b5b8060405250919050565b600067ffffffffffffffff821115610b9d57610b9c610dd0565b5b601f19601f8301169050602081019050919050565b6000819050602082019050919050565b600081519050919050565b600081519050919050565b6000602082019050919050565b600082825260208201905092915050565b600082825260208201905092915050565b600082825260208201905092915050565b6000610c2382610cbe565b9150610c2e83610cbe565b9250827fffffffffffffffffffffffffffffffffffffffffffffffffffffffffffffffff03821115610c6357610c62610d72565b5b828201905092915050565b6000610c7982610c9e565b9050919050565b6000610c8b82610c9e565b9050919050565b60008115159050919050565b600073ffffffffffffffffffffffffffffffffffffffff82169050919050565b6000819050919050565b6000610cd382610cda565b9050919050565b6000610ce582610cec565b9050919050565b6000610cf782610c9e565b9050919050565b82818337600083830152505050565b60005b83811015610d2b578082015181840152602081019050610d10565b83811115610d3a576000848401525b50505050565b60006002820490506001821680610d5857607f821691505b60208210811415610d6c57610d6b610da1565b5b50919050565b7f4e487b7100000000000000000000000000000000000000000000000000000000600052601160045260246000fd5b7f4e487b7100000000000000000000000000000000000000000000000000000000600052602260045260246000fd5b7f4e487b7100000000000000000000000000000000000000000000000000000000600052604160045260246000fd5b6000601f19601f8301169050919050565b610e1981610c80565b8114610e2457600080fd5b50565b610e3081610c92565b8114610e3b57600080fd5b50565b610e4781610cbe565b8114610e5257600080fd5b5056fea264697066735822122047dff1bfb5cf02f8069fcc88c96cf1f3b6eb49932740a3981a9800eaea8a007864736f6c63430008000033",
  "linkReferences": {},
  "deployedLinkReferences": {}
}